{
  "_format": "hh-sol-artifact-1",
  "contractName": "Fairlance",
  "sourceName": "contracts/Fairlance.sol",
  "abi": [
    {
      "inputs": [],
      "stateMutability": "nonpayable",
      "type": "constructor"
    },
    {
      "inputs": [
        {
          "internalType": "address",
          "name": "owner",
          "type": "address"
        }
      ],
      "name": "OwnableInvalidOwner",
      "type": "error"
    },
    {
      "inputs": [
        {
          "internalType": "address",
          "name": "account",
          "type": "address"
        }
      ],
      "name": "OwnableUnauthorizedAccount",
      "type": "error"
    },
    {
      "anonymous": false,
      "inputs": [
        {
          "indexed": false,
          "internalType": "address",
          "name": "sender",
          "type": "address"
        },
        {
          "indexed": false,
          "internalType": "uint256",
          "name": "amount",
          "type": "uint256"
        }
      ],
      "name": "Deposit",
      "type": "event"
    },
    {
      "anonymous": false,
      "inputs": [
        {
          "indexed": true,
          "internalType": "uint256",
          "name": "id",
          "type": "uint256"
        },
        {
          "indexed": true,
          "internalType": "string",
          "name": "title",
          "type": "string"
        },
        {
          "indexed": false,
          "internalType": "string",
          "name": "description",
          "type": "string"
        },
        {
          "indexed": false,
          "internalType": "uint256",
          "name": "deadline",
          "type": "uint256"
        },
        {
          "indexed": false,
          "internalType": "uint256",
          "name": "minimumPrice",
          "type": "uint256"
        },
        {
          "indexed": false,
          "internalType": "uint256",
          "name": "maximumPrice",
          "type": "uint256"
        },
        {
          "indexed": false,
          "internalType": "bool",
          "name": "inProgress",
          "type": "bool"
        },
        {
          "indexed": false,
          "internalType": "bool",
          "name": "isDone",
          "type": "bool"
        },
        {
          "indexed": true,
          "internalType": "address",
          "name": "owner",
          "type": "address"
        }
      ],
      "name": "JobPosted",
      "type": "event"
    },
    {
      "anonymous": false,
      "inputs": [
        {
          "indexed": true,
          "internalType": "address",
          "name": "previousOwner",
          "type": "address"
        },
        {
          "indexed": true,
          "internalType": "address",
          "name": "newOwner",
          "type": "address"
        }
      ],
      "name": "OwnershipTransferred",
      "type": "event"
    },
    {
      "anonymous": false,
      "inputs": [
        {
          "indexed": true,
          "internalType": "uint256",
          "name": "id",
          "type": "uint256"
        },
        {
          "indexed": true,
          "internalType": "uint256",
          "name": "jobId",
          "type": "uint256"
        },
        {
          "indexed": true,
          "internalType": "address",
          "name": "sender",
          "type": "address"
        },
        {
          "indexed": false,
          "internalType": "uint256",
          "name": "cost",
          "type": "uint256"
        },
        {
          "indexed": false,
          "internalType": "string",
          "name": "details",
          "type": "string"
        },
        {
          "indexed": false,
          "internalType": "uint256",
          "name": "expectedFinishDate",
          "type": "uint256"
        }
      ],
      "name": "ProposalSent",
      "type": "event"
    },
    {
      "anonymous": false,
      "inputs": [
        {
          "indexed": false,
          "internalType": "address",
          "name": "sender",
          "type": "address"
        },
        {
          "indexed": false,
          "internalType": "address",
          "name": "receiver",
          "type": "address"
        },
        {
          "indexed": false,
          "internalType": "uint256",
          "name": "amount",
          "type": "uint256"
        }
      ],
      "name": "Transfer",
      "type": "event"
    },
    {
      "anonymous": false,
      "inputs": [
        {
          "indexed": false,
          "internalType": "address",
          "name": "receiver",
          "type": "address"
        },
        {
          "indexed": false,
          "internalType": "uint256",
          "name": "amount",
          "type": "uint256"
        }
      ],
      "name": "Withdrawal",
      "type": "event"
    },
    {
      "inputs": [
        {
          "internalType": "uint256",
          "name": "_proposalId",
          "type": "uint256"
        }
      ],
      "name": "acceptProposal",
      "outputs": [],
      "stateMutability": "nonpayable",
      "type": "function"
    },
    {
      "inputs": [
        {
          "internalType": "address",
          "name": "",
          "type": "address"
        }
      ],
      "name": "balances",
      "outputs": [
        {
          "internalType": "uint256",
          "name": "",
          "type": "uint256"
        }
      ],
      "stateMutability": "view",
      "type": "function"
    },
    {
      "inputs": [
        {
          "internalType": "uint256",
          "name": "_jobId",
          "type": "uint256"
        }
      ],
      "name": "completeJob",
      "outputs": [],
      "stateMutability": "nonpayable",
      "type": "function"
    },
    {
      "inputs": [],
      "name": "deposit",
      "outputs": [],
      "stateMutability": "payable",
      "type": "function"
    },
    {
      "inputs": [
        {
          "internalType": "uint256",
          "name": "_id",
          "type": "uint256"
        }
      ],
      "name": "getJobById",
      "outputs": [
        {
          "components": [
            {
              "internalType": "uint256",
              "name": "id",
              "type": "uint256"
            },
            {
              "internalType": "string",
              "name": "title",
              "type": "string"
            },
            {
              "internalType": "string",
              "name": "description",
              "type": "string"
            },
            {
              "internalType": "uint256",
              "name": "deadline",
              "type": "uint256"
            },
            {
              "internalType": "uint256",
              "name": "minimumPrice",
              "type": "uint256"
            },
            {
              "internalType": "uint256",
              "name": "maximumPrice",
              "type": "uint256"
            },
            {
              "internalType": "bool",
              "name": "inProgress",
              "type": "bool"
            },
            {
              "internalType": "bool",
              "name": "isDone",
              "type": "bool"
            },
            {
              "internalType": "address",
              "name": "owner",
              "type": "address"
            }
          ],
          "internalType": "struct Fairlance.Job",
          "name": "",
          "type": "tuple"
        }
      ],
      "stateMutability": "view",
      "type": "function"
    },
    {
      "inputs": [
        {
          "internalType": "uint256",
          "name": "",
          "type": "uint256"
        }
      ],
      "name": "jobIdToJob",
      "outputs": [
        {
          "internalType": "uint256",
          "name": "id",
          "type": "uint256"
        },
        {
          "internalType": "string",
          "name": "title",
          "type": "string"
        },
        {
          "internalType": "string",
          "name": "description",
          "type": "string"
        },
        {
          "internalType": "uint256",
          "name": "deadline",
          "type": "uint256"
        },
        {
          "internalType": "uint256",
          "name": "minimumPrice",
          "type": "uint256"
        },
        {
          "internalType": "uint256",
          "name": "maximumPrice",
          "type": "uint256"
        },
        {
          "internalType": "bool",
          "name": "inProgress",
          "type": "bool"
        },
        {
          "internalType": "bool",
          "name": "isDone",
          "type": "bool"
        },
        {
          "internalType": "address",
          "name": "owner",
          "type": "address"
        }
      ],
      "stateMutability": "view",
      "type": "function"
    },
    {
      "inputs": [
        {
          "internalType": "address",
          "name": "",
          "type": "address"
        }
      ],
      "name": "onholdBalances",
      "outputs": [
        {
          "internalType": "uint256",
          "name": "",
          "type": "uint256"
        }
      ],
      "stateMutability": "view",
      "type": "function"
    },
    {
      "inputs": [],
      "name": "owner",
      "outputs": [
        {
          "internalType": "address",
          "name": "",
          "type": "address"
        }
      ],
      "stateMutability": "view",
      "type": "function"
    },
    {
      "inputs": [
        {
          "internalType": "string",
          "name": "_title",
          "type": "string"
        },
        {
          "internalType": "string",
          "name": "_description",
          "type": "string"
        },
        {
          "internalType": "uint256",
          "name": "_deadline",
          "type": "uint256"
        },
        {
          "internalType": "uint256",
          "name": "_minimumPrice",
          "type": "uint256"
        },
        {
          "internalType": "uint256",
          "name": "_maximumPrice",
          "type": "uint256"
        }
      ],
      "name": "postJob",
      "outputs": [],
      "stateMutability": "payable",
      "type": "function"
    },
    {
      "inputs": [
        {
          "internalType": "uint256",
          "name": "",
          "type": "uint256"
        }
      ],
      "name": "proposalIdToProposal",
      "outputs": [
        {
          "internalType": "uint256",
          "name": "id",
          "type": "uint256"
        },
        {
          "internalType": "uint256",
          "name": "jobId",
          "type": "uint256"
        },
        {
          "internalType": "address",
          "name": "sender",
          "type": "address"
        },
        {
          "internalType": "uint256",
          "name": "cost",
          "type": "uint256"
        },
        {
          "internalType": "string",
          "name": "details",
          "type": "string"
        },
        {
          "internalType": "uint256",
          "name": "expectedFinishDate",
          "type": "uint256"
        }
      ],
      "stateMutability": "view",
      "type": "function"
    },
    {
      "inputs": [
        {
          "internalType": "uint256",
          "name": "_jobId",
          "type": "uint256"
        }
      ],
      "name": "releaseOnHoldBalance",
      "outputs": [],
      "stateMutability": "nonpayable",
      "type": "function"
    },
    {
      "inputs": [],
      "name": "renounceOwnership",
      "outputs": [],
      "stateMutability": "nonpayable",
      "type": "function"
    },
    {
      "inputs": [
        {
          "internalType": "uint256",
          "name": "_jobId",
          "type": "uint256"
        },
        {
          "internalType": "uint256",
          "name": "_cost",
          "type": "uint256"
        },
        {
          "internalType": "string",
          "name": "_details",
          "type": "string"
        },
        {
          "internalType": "uint256",
          "name": "expectedFinishDate",
          "type": "uint256"
        }
      ],
      "name": "sendProposal",
      "outputs": [],
      "stateMutability": "nonpayable",
      "type": "function"
    },
    {
      "inputs": [
        {
          "internalType": "address",
          "name": "receiver",
          "type": "address"
        },
        {
          "internalType": "uint256",
          "name": "amount",
          "type": "uint256"
        }
      ],
      "name": "transfer",
      "outputs": [],
      "stateMutability": "nonpayable",
      "type": "function"
    },
    {
      "inputs": [
        {
          "internalType": "address",
          "name": "newOwner",
          "type": "address"
        }
      ],
      "name": "transferOwnership",
      "outputs": [],
      "stateMutability": "nonpayable",
      "type": "function"
    },
    {
      "inputs": [
        {
          "internalType": "uint256",
          "name": "amount",
          "type": "uint256"
        }
      ],
      "name": "withdraw",
      "outputs": [],
      "stateMutability": "nonpayable",
      "type": "function"
    }
  ],
  "bytecode": "0x608060405234801561001057600080fd5b50338061003757604051631e4fbdf760e01b81526000600482015260240160405180910390fd5b6100408161004e565b50600180805560025561009e565b600080546001600160a01b038381166001600160a01b0319831681178455604051919092169283917f8be0079c531659141344cd1fd0a4f28419497f9722a3daafe3b4186f6b6457e09190a35050565b611f5c806100ad6000396000f3fe6080604052600436106100f35760003560e01c806369d7428f1161008a578063a9059cbb11610059578063a9059cbb146102c2578063c035e492146102e2578063d0e30db01461030f578063f2fde38b1461031757600080fd5b806369d7428f14610238578063715018a6146102655780638da5cb5b1461027a578063a1c0d32f146102a257600080fd5b80632e1a7d4d116100c65780632e1a7d4d146101a65780635152ed1d146101c657806357cd642c146101f857806360c5cc3a1461021857600080fd5b806309bb238e146100f857806312d4d6eb146101365780631d137deb1461014b57806327e235e31461016b575b600080fd5b34801561010457600080fd5b50610118610113366004611933565b610337565b60405161012d9998979695949392919061199c565b60405180910390f35b610149610144366004611aad565b6104a1565b005b34801561015757600080fd5b50610149610166366004611933565b6106a0565b34801561017757600080fd5b50610198610186366004611b48565b60036020526000908152604090205481565b60405190815260200161012d565b3480156101b257600080fd5b506101496101c1366004611933565b610727565b3480156101d257600080fd5b506101e66101e1366004611933565b610815565b60405161012d96959493929190611b6a565b34801561020457600080fd5b50610149610213366004611bb0565b6108de565b34801561022457600080fd5b50610149610233366004611933565b610cde565b34801561024457600080fd5b50610258610253366004611933565b61107d565b60405161012d9190611c08565b34801561027157600080fd5b506101496112c3565b34801561028657600080fd5b506000546040516001600160a01b03909116815260200161012d565b3480156102ae57600080fd5b506101496102bd366004611933565b6112d7565b3480156102ce57600080fd5b506101496102dd366004611cb1565b6116b4565b3480156102ee57600080fd5b506101986102fd366004611b48565b60046020526000908152604090205481565b6101496117e0565b34801561032357600080fd5b50610149610332366004611b48565b611878565b6005602052600090815260409020805460018201805491929161035990611cdb565b80601f016020809104026020016040519081016040528092919081815260200182805461038590611cdb565b80156103d25780601f106103a7576101008083540402835291602001916103d2565b820191906000526020600020905b8154815290600101906020018083116103b557829003601f168201915b5050505050908060020180546103e790611cdb565b80601f016020809104026020016040519081016040528092919081815260200182805461041390611cdb565b80156104605780601f1061043557610100808354040283529160200191610460565b820191906000526020600020905b81548152906001019060200180831161044357829003601f168201915b505050506003830154600484015460058501546006909501549394919390925060ff808216916101008104909116906201000090046001600160a01b031689565b600a5460ff16156104cd5760405162461bcd60e51b81526004016104c490611d0f565b60405180910390fd5b600a805460ff19166001179055336000908152600360205260409020548111156105525760405162461bcd60e51b815260206004820152603060248201527f796f752073686f756c64206861766520746865206d6178696d756d507269636560448201526f20696e20796f75722062616c616e636560801b60648201526084016104c4565b60408051610120810182526001805480835260208084018a9052838501899052606084018890526080840187905260a08401869052600060c0850181905260e085018190523361010086015291825260089052928320839055805491926105b883611d4d565b909155505033600090815260046020526040812080548492906105dc908490611d66565b90915550503360009081526003602052604081208054849290610600908490611d7f565b925050819055508061010001516001600160a01b031681602001516040516106289190611d92565b604051809103902082600001517fd25b43d917e4b974bd3ae70435a6af7345d5be9851b4df0bf8baa65dc7a282368460400151856060015186608001518760a001518860c001518960e0015160405161068696959493929190611dae565b60405180910390a45050600a805460ff1916905550505050565b6106a86118b6565b60006106b38261107d565b60a08101516101008201516001600160a01b03166000908152600460205260408120805493945091926106e7908490611d7f565b909155505060a08101516101008201516001600160a01b03166000908152600360205260408120805490919061071e908490611d66565b90915550505050565b600a5460ff161561074a5760405162461bcd60e51b81526004016104c490611d0f565b600a805460ff19166001179055336000908152600360205260409020548111156107ab5760405162461bcd60e51b8152602060048201526012602482015271496e73756666696369656e742066756e647360701b60448201526064016104c4565b60408051338152602081018390527f7fcf532c15f0a6db0bd6d0e038bea71d30d808c7d98cb3bf7268a95bf5081b65910160405180910390a13360009081526003602052604081208054839290610803908490611d7f565b9091555050600a805460ff1916905550565b60066020526000908152604090208054600182015460028301546003840154600485018054949593946001600160a01b0390931693919261085590611cdb565b80601f016020809104026020016040519081016040528092919081815260200182805461088190611cdb565b80156108ce5780601f106108a3576101008083540402835291602001916108ce565b820191906000526020600020905b8154815290600101906020018083116108b157829003601f168201915b5050505050908060050154905086565b60006108e98561107d565b90508060e001511561094b5760405162461bcd60e51b815260206004820152602560248201527f43616e6e6f742073656e642070726f706f73616c20746f20636f6d706c65746560448201526432103537b160d91b60648201526084016104c4565b8060c00151156109ac5760405162461bcd60e51b815260206004820152602660248201527f43616e6e6f742073656e642070726f706f73616c20746f20696e70726f67726560448201526539b9903537b160d11b60648201526084016104c4565b428211610a0e5760405162461bcd60e51b815260206004820152602a60248201527f657870656374656446696e697368446174652073686f756c6420626520696e206044820152697468652066757475726560b01b60648201526084016104c4565b80606001518210610a765760405162461bcd60e51b815260206004820152602c60248201527f657870656374656446696e697368446174652073686f756c642062652062656660448201526b6f726520646561646c696e6560a01b60648201526084016104c4565b8060a001518411158015610a8e575080608001518410155b610af75760405162461bcd60e51b815260206004820152603460248201527f436f73742073686f756c64206265206265747765656e206d6178696d756d507260448201527369636520616e64206d696e696d756d507269636560601b60648201526084016104c4565b60006040518060c001604052806002548152602001878152602001336001600160a01b0316815260200186815260200185815260200184815250905060016008600060015481526020019081526020016000206000828254610b599190611d66565b9091555050600180546000908152600760209081526040808320805480860182559084529282902085516006909402019283559084015192820192909255908201516002820180546001600160a01b0319166001600160a01b039092169190911790556060820151600382015560808201518291906004820190610bdd9082611e3d565b5060a0919091015160059091015560028054600090815260066020908152604091829020845181559084015160018201559083015191810180546001600160a01b0319166001600160a01b03909316929092179091556060820151600382015560808201518291906004820190610c549082611e3d565b5060a0919091015160059091015560028054906000610c7283611d4d565b919050555080604001516001600160a01b0316816020015182600001517ff40c161e161b45cd55bc45b5b0159c2a6adad93aad3a12e7a443e54450bf61ba846060015185608001518660a00151604051610cce93929190611efd565b60405180910390a4505050505050565b806002548110610d265760405162461bcd60e51b8152602060048201526013602482015272125b9d985b1a5908141c9bdc1bdcd85b081259606a1b60448201526064016104c4565b6000828152600660209081526040808320815160c0810183528154815260018201549381019390935260028101546001600160a01b03169183019190915260038101546060830152600481018054608084019190610d8390611cdb565b80601f0160208091040260200160405190810160405280929190818152602001828054610daf90611cdb565b8015610dfc5780601f10610dd157610100808354040283529160200191610dfc565b820191906000526020600020905b815481529060010190602001808311610ddf57829003601f168201915b5050505050815260200160058201548152505090506000610e20826020015161107d565b90508060e0015115610e845760405162461bcd60e51b815260206004820152602760248201527f43616e6e6f74206163636570742070726f706f73616c20746f20636f6d706c656044820152663a32b2103537b160c91b60648201526084016104c4565b8060c0015115610ee75760405162461bcd60e51b815260206004820152602860248201527f43616e6e6f74206163636570742070726f706f73616c20746f20696e70726f676044820152673932b9b9903537b160c11b60648201526084016104c4565b600160c082018190528151600090815260056020908152604090912083518155908301518392820190610f1a9082611e3d565b5060408201516002820190610f2f9082611e3d565b50606082015160038201556080820151600482015560a0820151600582015560c08201516006909101805460e08401516101009485015161ffff1990921693151561ff0019169390931792151584029290921762010000600160b01b031916620100006001600160a01b039384160217905590820151339116146110015760405162461bcd60e51b815260206004820152602360248201527f4f6e6c79204a6f62206f776e65722063616e2074616b6520746869732061637460448201526234b7b760e91b60648201526084016104c4565b60208281018051600090815260099092526040918290208451815590516001820155908301516002820180546001600160a01b0319166001600160a01b0390921691909117905560608301516003820155608083015183919060048201906110699082611e3d565b5060a0820151816005015590505050505050565b6110d960405180610120016040528060008152602001606081526020016060815260200160008152602001600081526020016000815260200160001515815260200160001515815260200160006001600160a01b031681525090565b81600154811061111c5760405162461bcd60e51b815260206004820152600e60248201526d125b9d985b1a5908129bd888125960921b60448201526064016104c4565b60056000848152602001908152602001600020604051806101200160405290816000820154815260200160018201805461115590611cdb565b80601f016020809104026020016040519081016040528092919081815260200182805461118190611cdb565b80156111ce5780601f106111a3576101008083540402835291602001916111ce565b820191906000526020600020905b8154815290600101906020018083116111b157829003601f168201915b505050505081526020016002820180546111e790611cdb565b80601f016020809104026020016040519081016040528092919081815260200182805461121390611cdb565b80156112605780601f1061123557610100808354040283529160200191611260565b820191906000526020600020905b81548152906001019060200180831161124357829003601f168201915b505050918352505060038201546020820152600482015460408201526005820154606082015260069091015460ff80821615156080840152610100820416151560a08301526201000090046001600160a01b031660c09091015291505b50919050565b6112cb6118b6565b6112d560006118e3565b565b600a5460ff16156112fa5760405162461bcd60e51b81526004016104c490611d0f565b600a805460ff1916600117905560006113128261107d565b90508060e00151156113725760405162461bcd60e51b8152602060048201526024808201527f43616e6e6f7420636f6d706c657465204a6f6220746f20636f6d706c65746564604482015263103537b160e11b60648201526084016104c4565b8060c001516113d55760405162461bcd60e51b815260206004820152602960248201527f43616e6e6f7420636f6d706c657465204a6f6220746f206e6f7420696e70726f60448201526833b932b9b9903537b160b91b60648201526084016104c4565b8061010001516001600160a01b0316336001600160a01b0316146114495760405162461bcd60e51b815260206004820152602560248201527f4f6e6c79204a6f62206f776e65722063616e206163636573732074686973206160448201526431ba34b7b760d91b60648201526084016104c4565b600160e08201819052600060c08301819052838152600560209081526040909120835181559083015183928201906114819082611e3d565b50604082015160028201906114969082611e3d565b5060608281015160038381019190915560808085015160048086019190915560a0860151600586015560c0808701516006909601805460e0890151610100998a015161ffff1990921698151561ff001916989098179715159098029690961762010000600160b01b031916620100006001600160a01b039889160217909555600088815260096020908152604080832081519889018252805489526001810154928901929092526002820154909816978701979097529286015493850193909352918401805491949284019161156b90611cdb565b80601f016020809104026020016040519081016040528092919081815260200182805461159790611cdb565b80156115e45780601f106115b9576101008083540402835291602001916115e4565b820191906000526020600020905b8154815290600101906020018083116115c757829003601f168201915b5050505050815260200160058201548152505090508160a0015160046000336001600160a01b03166001600160a01b0316815260200190815260200160002060008282546116329190611d7f565b9091555050606081015160a083015161164b9190611d7f565b336000908152600360205260408120805490919061166a908490611d66565b909155505060608101516040808301516001600160a01b03166000908152600360205290812080549091906116a0908490611d66565b9091555050600a805460ff19169055505050565b600a5460ff16156116d75760405162461bcd60e51b81526004016104c490611d0f565b600a805460ff19166001179055336000908152600360205260409020548111156117385760405162461bcd60e51b8152602060048201526012602482015271496e73756666696369656e742066756e647360701b60448201526064016104c4565b604080513381526001600160a01b03841660208201529081018290527fddf252ad1be2c89b69c2b068fc378daa952ba7f163c4a11628f55a4df523b3ef9060600160405180910390a133600090815260036020526040812080548392906117a0908490611d7f565b90915550506001600160a01b038216600090815260036020526040812080548392906117cd908490611d66565b9091555050600a805460ff191690555050565b600a5460ff16156118035760405162461bcd60e51b81526004016104c490611d0f565b600a805460ff19166001179055604080513381523460208201527fe1fffcc4923d04b559f4d29a8bfc6cda04eb5b0d3c460751c2402c5c5cc9109c910160405180910390a13360009081526003602052604081208054349290611867908490611d66565b9091555050600a805460ff19169055565b6118806118b6565b6001600160a01b0381166118aa57604051631e4fbdf760e01b8152600060048201526024016104c4565b6118b3816118e3565b50565b6000546001600160a01b031633146112d55760405163118cdaa760e01b81523360048201526024016104c4565b600080546001600160a01b038381166001600160a01b0319831681178455604051919092169283917f8be0079c531659141344cd1fd0a4f28419497f9722a3daafe3b4186f6b6457e09190a35050565b60006020828403121561194557600080fd5b5035919050565b60005b8381101561196757818101518382015260200161194f565b50506000910152565b6000815180845261198881602086016020860161194c565b601f01601f19169290920160200192915050565b60006101208b83528060208401526119b68184018c611970565b905082810360408401526119ca818b611970565b60608401999099525050608081019590955260a085019390935290151560c0840152151560e08301526001600160a01b0316610100909101529392505050565b634e487b7160e01b600052604160045260246000fd5b600082601f830112611a3157600080fd5b813567ffffffffffffffff80821115611a4c57611a4c611a0a565b604051601f8301601f19908116603f01168101908282118183101715611a7457611a74611a0a565b81604052838152866020858801011115611a8d57600080fd5b836020870160208301376000602085830101528094505050505092915050565b600080600080600060a08688031215611ac557600080fd5b853567ffffffffffffffff80821115611add57600080fd5b611ae989838a01611a20565b96506020880135915080821115611aff57600080fd5b50611b0c88828901611a20565b959895975050505060408401359360608101359360809091013592509050565b80356001600160a01b0381168114611b4357600080fd5b919050565b600060208284031215611b5a57600080fd5b611b6382611b2c565b9392505050565b86815285602082015260018060a01b038516604082015283606082015260c060808201526000611b9d60c0830185611970565b90508260a0830152979650505050505050565b60008060008060808587031215611bc657600080fd5b8435935060208501359250604085013567ffffffffffffffff811115611beb57600080fd5b611bf787828801611a20565b949793965093946060013593505050565b602081528151602082015260006020830151610120806040850152611c31610140850183611970565b91506040850151601f19858403016060860152611c4e8382611970565b92505060608501516080850152608085015160a085015260a085015160c085015260c0850151611c8260e086018215159052565b5060e0850151610100611c988187018315159052565b909501516001600160a01b031693019290925250919050565b60008060408385031215611cc457600080fd5b611ccd83611b2c565b946020939093013593505050565b600181811c90821680611cef57607f821691505b6020821081036112bd57634e487b7160e01b600052602260045260246000fd5b6020808252600e908201526d4e6f2072652d656e7472616e637960901b604082015260600190565b634e487b7160e01b600052601160045260246000fd5b600060018201611d5f57611d5f611d37565b5060010190565b80820180821115611d7957611d79611d37565b92915050565b81810381811115611d7957611d79611d37565b60008251611da481846020870161194c565b9190910192915050565b60c081526000611dc160c0830189611970565b6020830197909752506040810194909452606084019290925215156080830152151560a090910152919050565b601f821115611e3857600081815260208120601f850160051c81016020861015611e155750805b601f850160051c820191505b81811015611e3457828155600101611e21565b5050505b505050565b815167ffffffffffffffff811115611e5757611e57611a0a565b611e6b81611e658454611cdb565b84611dee565b602080601f831160018114611ea05760008415611e885750858301515b600019600386901b1c1916600185901b178555611e34565b600085815260208120601f198616915b82811015611ecf57888601518255948401946001909101908401611eb0565b5085821015611eed5787850151600019600388901b60f8161c191681555b5050505050600190811b01905550565b838152606060208201526000611f166060830185611970565b905082604083015294935050505056fea26469706673582212206b0259425ed5ad88a2433832174cb11cf5280ccf2bac81aba1b5a02488422f9e64736f6c63430008140033",
  "linkReferences": {},
  "deployedLinkReferences": {}
}